:020000020000FC
:080000000C9471000C94A200A5
:040040000C94A40078
:10006800039F250D9949411F011911C163856171CC
:10007800559A239A229A219A539A569A549A579A99
:100088000895E4E3F0E08894EE1FFF1FE80FF91FDE
:1000980024913FEF23275D98221F08F45D9A2B983F
:1000A800221F08F42B9A2A98221F08F42A9A2998C2
:1000B800221F08F4299A5B98221F08F45B9A5E981D
:1000C800221F08F45E9A5C98221F08F45C9A5F98D5
:1000D800221F08F45F9A0000089501E0502E08E0FE
:1000E8000EBF0FEF0DBF01E000936E0000E004BDEE
:1000F80005E005BD06E2402E259A2D981124529858
:100108005A9AB6DF0FE031E0309369003DBB78942E
:10011800802F90E0B6DF0AD0050D10E1011709F431
:1001280000E01FEF011709F40FE0F2CF24E18DED95
:100138009BE00196F1F72A95D1F708955194189507
:1001480000E04A94401609F0189506E2402E05B1E1
:0801580040E2042705B91895E7
:00000001FF
