:020000020000FC
:040000000C94340028
:040048000C946400B0
:100068000E944600529A20E00E943B00FDCF10916A
:10007800C00017FFFCCF00910B0001950BB9009150
:10008800C600089500E110E01093C5000093C40075
:1000980008E10093C1000EE00093C200089500E15A
:1000A80010E01093C5000093C40000E80093C1005D
:1000B80008E90093C1000EE00093C2007894089507
:1000C8001FB70091C6005A9A08C030E0231719F0EC
:0E00D80020E05A9802C021E05A9A1FBF1895E6
:00000001FF
