:020000020000FC
:040000000C94340028
:0C002C000C94D5000C94D5000C94D50069
:10006800002411242224332444248FEF8AB983E006
:1000780084B955D082E389D083E47CD082E385D0EB
:1000880082E778D082E381D08FE674D082E37DD096
:100098008EE670D082E379D08FE66CD082E375D09B
:1000A80074D004EF0093890003E20093880002E013
:1000B80000936F00109280000CE000938100789408
:1000C80080EC52D082E361D0842D82958F7080635A
:1000D80051D082E35AD0842D8F7080634BD082E355
:1000E80054D08AE347D082E350D0832D82958F7015
:1000F800806340D082E349D0832D8F7080633AD0EB
:1001080082E343D049D048D047D046D045D044D0E8
:1001180043D042D041D040D03FD03ED0D1CF80E371
:1001280023D082E332D038D037D036D080E31CD009
:1001380082E32BD080E318D082E327D088E314D061
:1001480082E323D088E010D082E31FD081E00CD076
:1001580082E31BD021D086E007D082E316D08CE062
:1001680003D082E312D008958BB92998289A08D031
:10017800289808958BB9299A289A02D02898089522
:10018800000082E08A95F1F7089593E000009A95BF
:10019800E9F78A95D1F7089580EB90EE0196F1F78B
:1001A80008950FE003210930C9F400EF3022032D30
:1001B800003589F4312C0FE00421093051F400EFA7
:1001C8004022042D003511F4412C09C000E1400EF5
:1001D80006C0439404C000E1300E01C03394189562
:1001E80048656C6C6F21200055657267732E2E2E42
:0201F800000005
:00000001FF
