:020000020000FC
:040000000C94D60185
:040048000C94CA0149
:040054000C943602D0
:100068001895449A459A88E48093B80080E0809374
:10007800B90085E48093BC00089580E08093BC00BB
:1000880084EA8093BC008091BC0087FFFCCF089570
:1000980084E98093BC0008958093BB0084E8809332
:1000A800BC008091BC0087FFFCCF089584E8809352
:1000B800BC008091BC0087FFFCCF8091BB000895F5
:1000C80084EC8093BC008091BC0087FFFCCF8091BA
:1000D800BB000895AF939F938F930E9441008F9127
:1000E8008894881F0E9450008F910E9450008F9121
:1000F8000E9450000E944C0008958F939F938F9305
:100108000E9441008F918894881F0E9450008F910F
:100118000E9450000E9441008F910894881F0E94FD
:1001280050000E945A008F930E944C008F910895AE
:10013800000082E08A95F1F7089593E000009A950F
:10014800E9F78A95D1F7089580EB90EE0196F1F7DB
:1001580008950CE011E000930C0210930D02009337
:100168000E0210930F0200E00093100208950FEFA3
:10017800109110020117A1F0139510931002C0916D
:100188000C02D0910D0229930CE012E01D1721F406
:100198000C1711F4CCE0D1E0C0930C02D0930D02FF
:1001A8000895009110020023A1F00A95009310020F
:1001B800C0910E02D0910F0229910CE012E01D1798
:1001C80021F40C1711F4CCE0D1E0C0930E02D093C7
:1001D8000F02089535E02DE000E010EA40E050E01D
:1001E8008017910720F00894411D801B910B88947B
:1001F800179507958894441F551F2A9589F7889461
:100208005795479580638F93842F952F3A9519F7C3
:100218000F910D930F910D930F910D930F910D93D6
:100228000F910D9300E00D930895A8E28EE390E8F6
:1002380051DF82E382DF88DF87DF86DFA8E28EE393
:1002480090E848DF82E379DF84E677DFA8E28EE38F
:1002580090E840DF82E371DFA8E28EE390E83ADFBE
:1002680082E36BDFA8E38EE390E834DF82E365DFA7
:10027800A8E08EE390E82EDF82E35FDFA1E08EE363
:1002880090E828DF82E359DF5FDFA6E08EE390E89D
:1002980021DF82E352DFACE08EE390E81BDF82E3EC
:1002A8004CDF01D0089590E0A0E082E613DF98E0EB
:1002B800AFEF82E60FDF91E0A0E282E60BDF94E089
:1002C800A0E082E607DF93E0A0E082E603DF92E0A9
:1002D800AFEF82E6FFDE0895A1E08EE390E8FADE54
:1002E80082E32BDF31DF0895A0E89F70817009F069
:1002F800A064A92BAA2F8EE390E8ECDE82E31DDF31
:1003080008958894EE1FFF1F8591882309F40895A6
:10031800A82F8EE390E4DEDE82E30FDFF5CF819134
:10032800882309F40895A82F8EE390E4D3DE82E3AE
:1003380004DFF5CF8F9382958F7080638A3312F034
:1003480097E0890FA82F8EE390E4C4DE82E3F5DE00
:100358008F918F7080638A3312F097E0890FA82FEE
:100368008EE390E4B7DE82E3E8DE089500E110E072
:100378001093C5000093C40008E90093C1000EE083
:100388000093C20002E00093C00008952091C600C7
:10039800722EEDDE18951091C00015FFFCCF00936A
:1003A800C600089508E00EBF0FEF0DBF112489E3C2
:1003B80090E310DFCEDEDADF54DE37DF5524772412
:1003C800E1E4F2E09EDF81E090E08EDFE8E4F2E035
:1003D80098DF4C9BFECF4C99FECF85E39CE0909331
:1003E80089008093880090938B0080938A0080E036
:1003F800809385008093840080936F0080938000B1
:100408008DE08093810081E080937E0080E480937A
:100418007C0085E080937B008FEF80937A0078944E
:100428005BDFEFE4F2E06DDF809100019091010164
:10043800A2E0B1E0CFDEE2E0F1E071DF80911002EE
:10044800882361F081E0952D4FDFABDEA22F8EE38C
:1004580090E440DE82E371DE5394F0CF80E096E0D2
:1004680043DFE2CF009178001091790000930001FA
:10047800109301010FEF06BB189548656C6C6F204F
:100488005565726773210000507265737320627539
:0E04980074746F6E0000414443203D2000004C
:00000001FF
