:100000000C94DE000C94FB000C94FB000C94FB00A1
:100010000C94FB000C94FB000C9404020C94FB0069
:100020000C94FB000C94FB000C94FB000C94FB0064
:100030000C94FB000C94FB000C94FB000C94FB0054
:100040000C94FB000C94FB000C94C7020C94F2027D
:100050000C94FB000C94FB000C94FB000C94FB0034
:100060000C94FB000C94FB0008000000BE92244995
:10007000123EABAAAA2ABECDCCCC4C3E00000080DA
:10008000BEABAAAAAA3E00000000BF000000803F4D
:100090000000000000084178D3BB4387D1133D190D
:1000A0000E3CC3BD4282AD2B3E68EC8276BED98F3A
:1000B000E1A93E4C80EFFFBE01C4FF7F3F0000007E
:1000C000000000407A10F35A00A0724E1809001088
:1000D000A5D4E80000E87648170000E40B540200BD
:1000E00000CA9A3B000000E1F505000080969800E8
:1000F000000040420F000000A08601000000102711
:1001000000000000E80300000000640000000000A0
:100110000A00000000000100000000002C76D888D2
:10012000DC674F0823DFC1DFAE59E1B1B796E5E3E5
:10013000E453C63AE651997696E8E6C28426EB89FE
:100140008C9B62ED407C6FFCEFBC9C9F40F2BAA59B
:100150006FA5F490055A2AF75C936B6CF9676DC133
:100160001BFCE0E40D47FEF520E6B500D0ED902E37
:100170000300943577050080841E080000204E0A95
:10018000000000C80C333333330F986E12831141D3
:10019000EF8D2114893BE65516CFFEE6DB18D1849E
:1001A0004B381BF77C1D901DA4BBE42420328472C5
:1001B0005E228100C9F124ECA1E53D2711241FBE78
:1001C000CFEFD8E0DEBFCDBF11E0A0E0B1E0EEE6BA
:1001D000F0E102C005900D92AC30B107D9F721E0F3
:1001E000ACE0B1E001C01D92A235B207E1F70E9478
:1001F00017010C9435080C94000081E080937E0078
:1002000080E480937C0010927B00EAE7F0E01082AB
:1002100087E98083808180648083808186FDFDCF33
:10022000809178002091790090E0922B0895CF93EF
:10023000DF93CDB7DEB7AA970FB6F894DEBF0FBE37
:10024000CDBF0E94A20142E66EE3CE0189960E94D4
:10025000B702CE0189960E94BD0220E040E06FEF18
:10026000CE0189960E94230240E060E0CE0189968B
:100270000E944B0260E071E0CE0189960E94590213
:1002800040E061E0CE0189960E944B020E94FD0091
:100290008C014AE0BE016B5E7F4F0E949705B8015A
:1002A000110F880B990B0E94FD039B01AC0160E0CC
:1002B00070EC8FE794E40E94890320E030E040E88E
:1002C0005FE30E941C030E94910420E038E945E8A6
:1002D00055E40E9489032FE03FEC4BE55BE30E946D
:1002E0001D039B01AC0160E070E080E89FE30E9489
:1002F000890323E333E948E853E40E941C038E0199
:100300000F5F1F4F23E048E00E947705B801CE0140
:1003100089960E94590269E071E0CE0189960E9497
:100320005902BE016B5E7F4FCE0189960E94590231
:100330002FEF83EC99E0215080409040E1F700C01E
:1003400000009ECF87B1806387B988B1806388B988
:1003500088E48093B8001092B90085E48093BC00D3
:10036000089510920C01ECEBF0E0108284EA808397
:1003700099E088E10FB6F894A895809360000FBECD
:100380009093600080818823ECF7ECEBF0E00000B4
:1003900000008081882324F080910C018823B9F328
:1003A0000FB6F894A89580916000886180936000F2
:1003B000109260000FBE089590910C0191110AC037
:1003C0008093BB0084E88093BC00ECEBF0E080817C
:1003D0008823ECF708951F93CF93DF93182FD62F20
:1003E000C42F0E94B101812F880F0E94DC018D2F44
:1003F0000E94DC018C2F0E94DC0184E98093BC0008
:10040000DF91CF911F9108951F920F920FB60F9217
:1004100011240F900FBE0F901F901895CF93DF936C
:10042000EC0140E060E089810E94EB014FEF68E061
:1004300089810E94EB0140E261E089810E94EB0129
:10044000DF91CF9108950F931F93CF93DF93EC012A
:10045000042F122F462F64E089810E94EB01402F68
:1004600063E089810E94EB01412F62E089810E9453
:10047000EB01DF91CF911F910F910895462F60E816
:10048000FC0180810E94EB0187EC90E00197F1F77D
:1004900000C000000895403140F4623030F4611132
:1004A00002C020E801C020EC422B642F0E943E02D3
:1004B00008950F931F93CF93DF93FB014081442353
:1004C00089F08C01EB01219660E4F80180810E94A3
:1004D000EB0187EC90E00197F1F700C00000499133
:1004E0004111F2CFDF91CF911F910F910895CF93DA
:1004F000DF93EC0168E20E943E028FEB9DE50197DD
:10050000F1F700C0000068E2CE010E943E028FE8D1
:1005100091E00197F1F700C0000068E2CE010E946F
:100520003E0268E3CE010E943E0268E0CE010E94D6
:100530003E0261E0CE010E943E028FE39FE10197FF
:10054000F1F700C0000066E0CE010E943E026CE0C0
:10055000CE010E943E02CE010E940E0220E04FEF2B
:100560006FEFCE010E942302DF91CF910895FC012D
:10057000608341830E947702089561E00E943E02F9
:100580008FE39FE10197F1F700C0000008951F92EB
:100590000F920FB60F9211242F938F939F93EF9387
:1005A000FF938091C0002091C6008871E0910F01F7
:1005B000EF5FEF7190910E01E91739F0E0930F01B1
:1005C000F0E0EE5EFE4F208301C082E080930D01DB
:1005D000FF91EF919F918F912F910F900FBE0F90F0
:1005E0001F9018951F920F920FB60F9211248F93A0
:1005F0009F93EF93FF9390911101809110019817B1
:1006000069F0E0911001EF5FEF71E0931001F0E00D
:10061000EE5CFE4F80818093C60005C0E1ECF0E007
:1006200080818F7D8083FF91EF919F918F910F90BB
:100630000FBE0F901F9018955058BB27AA270E94F5
:1006400034030C944F040E94410438F00E94480483
:1006500020F039F49F3F19F426F40C943E040EF474
:10066000E095E7FB0C943804E92F0E94600458F3EE
:10067000BA17620773078407950720F079F4A6F587
:100680000C9482040EF4E0950B2EBA2FA02D0B01D2
:10069000B90190010C01CA01A0011124FF27591BC7
:1006A00099F0593F50F4503E68F11A16F040A22FCD
:1006B000232F342F4427585FF3CF4695379527953E
:1006C000A795F0405395C9F77EF41F16BA0B620B3D
:1006D000730B840BBAF09150A1F0FF0FBB1F661F84
:1006E000771F881FC2F70EC0BA0F621F731F841FC7
:1006F00048F4879577956795B795F7959E3F08F0ED
:10070000B0CF9395880F08F09927EE0F97958795AE
:1007100008950E949D030C944F040E94480458F0D1
:100720000E94410440F029F45F3F29F00C94380402
:1007300051110C9483040C943E040E94600468F3ED
:100740009923B1F3552391F3951B550BBB27AA278A
:1007500062177307840738F09F5F5F4F220F331FC4
:10076000441FAA1FA9F335D00E2E3AF0E0E832D08C
:1007700091505040E695001CCAF72BD0FE2F29D08F
:10078000660F771F881FBB1F261737074807AB0761
:10079000B0E809F0BB0B802DBF01FF2793585F4FD6
:1007A0003AF09E3F510578F00C9438040C94830481
:1007B0005F3FE4F3983ED4F3869577956795B795B8
:1007C000F7959F5FC9F7880F911D9695879597F9C3
:1007D0000895E1E0660F771F881FBB1F621773073C
:1007E0008407BA0720F0621B730B840BBA0BEE1F51
:1007F00088F7E0950895E89409C097FB3EF490953A
:100800008095709561957F4F8F4F9F4F9923A9F0E9
:10081000F92F96E9BB279395F69587957795679578
:10082000B795F111F8CFFAF4BB0F11F460FF1BC0BC
:100830006F5F7F4F8F4F9F4F16C0882311F096E94F
:1008400011C0772321F09EE8872F762F05C06623FD
:1008500071F096E8862F70E060E02AF09A95660FB6
:10086000771F881FDAF7880F9695879597F908956F
:1008700097F99F6780E870E060E008959FEF80EC53
:10088000089500240A9416161706180609060895F6
:1008900000240A9412161306140605060895092E5C
:1008A0000394000C11F4882352F0BB0F40F4BF2BCB
:1008B00011F460FF04C06F5F7F4F8F4F9F4F08950B
:1008C00057FD9058440F551F59F05F3F71F0479501
:1008D000880F97FB991F61F09F3F79F087950895E6
:1008E000121613061406551FF2CF4695F1DF08C005
:1008F000161617061806991FF1CF86957105610522
:1009000008940895E894BB2766277727CB0197F9C9
:10091000089516F00C9442050C943E0468940C94CF
:1009200038040E946804A8F39923C1F3AEF3DF935F
:10093000CF931F930F93FF92C92FDD2788232AF0AF
:100940002197660F771F881FDAF720E030E040E834
:100950005FEB9FE3883920F0803E38F021968F7757
:100960000E941D03E8E6F0E004C00E941D03E5E9D3
:10097000F0E00E9450058B01BE01EC01FB2E6F5789
:1009800071097595771F880B990B0E94FD0328E16B
:1009900032E741E35FE30E94E804AF2D9801AE0126
:1009A000FF900F911F91CF91DF910E9434030C941F
:1009B0004F040E94410438F00E94480420F095231F
:1009C00011F00C9438040C943E0411240C9483040C
:1009D0000E94600470F3959FC1F3950F50E0551F7E
:1009E000629FF001729FBB27F00DB11D639FAA2784
:1009F000F00DB11DAA1F649F6627B00DA11D661FD3
:100A0000829F2227B00DA11D621F739FB00DA11DF3
:100A1000621F839FA00D611D221F749F3327A00DAD
:100A2000611D231F849F600D211D822F762F6A2F49
:100A300011249F5750409AF0F1F088234AF0EE0FAE
:100A4000FF1FBB1F661F771F881F91505040A9F7DB
:100A50009E3F510580F00C9438040C9483045F3F52
:100A6000E4F3983ED4F3869577956795B795F79517
:100A7000E7959F5FC1F7FE2B880F911D969587958F
:100A800097F908959F3F31F0915020F4879577951D
:100A90006795B795880F911D9695879597F9089555
:100AA000DF93CF931F930F93FF92EF92DF927B011F
:100AB0008C01689406C0DA2EEF010E94E804FE0162
:100AC000E894A5912591359145915591A6F3EF01B3
:100AD0000E943403FE019701A801DA9469F7DF90C0
:100AE000EF90FF900F911F91CF91DF910895EF92BA
:100AF0000F931F93CF93DF93E80147FD02C034E0CB
:100B000001C034E1042E000C550B57FF03C0519572
:100B100041955109E32E022F242FAE010E94BC05FE
:100B2000CE01DF91CF911F910F91EF900895BB27D8
:100B30004A3031F4992322F4BDE2909581959F4F7C
:100B40000C94A305BB27FB015527AA27880F991FE3
:100B5000AA1FA41710F0A41B83955051B9F7A05DEC
:100B6000AA3308F0A95DA193009779F7B111B19369
:100B70001192CB010C94EE07A9E0B0E0E2ECF5E0B5
:100B80000C9404086A01122FB02E2BE3201720F0DA
:100B9000FF24F394F00E02C02CE3F22E0F2D27E079
:100BA000AE014F5F5F4F0E941607BC014981842F41
:100BB0008970813031F0E1FC06C0E0FE06C090E2B1
:100BC00005C09DE203C09BE201C090E05E2D507124
:100BD00043FF3CC0911102C083E001C084E0811753
:100BE00018F4212F281B01C020E051110BC0F60181
:100BF000822F30E2882319F031938150FBCFC20E4F
:100C0000D11C20E0992329F0D6019C93F60131965E
:100C10006F01C6010396E2FE0AC03EE4D6013C9392
:100C200041E411964C93119712963C9306C03EE610
:100C3000F601308341E641833283FC01322F40E2EA
:100C4000332309F442C041933150FACF42FF44C0EC
:100C5000911102C083E001C084E0811718F4212FB4
:100C6000281B01C020E051110BC0F601822F30E299
:100C7000882319F031938150FBCFC20ED11C20E0A4
:100C8000992329F0D6019C93F60131966F01C60194
:100C90000396E2FE0BC039E4D6013C933EE4119684
:100CA0003C93119736E412963C9307C039E6F6015F
:100CB00030833EE6318336E63283FC01322F40E258
:100CC000332319F041933150FBCFFC01E20FF11DAA
:100CD00010828EEF9FEFA6C021E030E0911102C09C
:100CE00020E030E0161617061CF4FB01319602C016
:100CF000E1E0F0E02E0F3F1FBB2021F0EB2DF0E0F4
:100D0000319602C0E0E0F0E02E0F3F1FE12FF0E04F
:100D10002E173F071CF4121B212F01C020E08E2D3F
:100D2000887159F4F601822F30E2882319F031934B
:100D30008150FBCFC20ED11C20E0992329F0D601AF
:100D40009C93F60131966F0151110BC0F601822F71
:100D500090E3882319F091938150FBCFC20ED11CF0
:100D600020E00F2D060F9A81342F307144FF03C00D
:100D7000913309F40150101624F4093018F008E0FA
:100D800001C001E0AB0177FF02C040E050E0FB0191
:100D9000E41BF50BA1E0B0E0AC0FBD1FEA0FFB1F99
:100DA0008EE2A82E4B01801A91080B2D10E01195B0
:100DB000019511094F3FBFEF5B0721F4D601AC92BB
:100DC00011966D01641775072CF08416950614F4BE
:100DD000818101C080E3415051093196D6011196BD
:100DE0007D014017510724F0D6018C936701E2CFB3
:100DF0006417750739F4963320F4953319F43111DB
:100E000001C081E3F6018083F701822F90E28823FD
:100E100019F091938150FBCFF701E20FF11D108281
:100E200080E090E02996ECE00C942008283008F04F
:100E300027E03327DA01990F311D87FD9160009675
:100E40006105710539F432602E5F3D9330E32A95D8
:100E5000E1F708959F3F30F080387105610509F092
:100E60003C5F3C5F3D93913008F08068911DDF93BB
:100E7000CF931F930F93FF92EF92192F987F969520
:100E8000E92F96959695E90FFF27E45EFE4F992787
:100E90003327EE24FF24A701E70105900894079467
:100EA00028F4360FE71EF81E491F511D660F771FE5
:100EB000881F991F0694A1F70590079428F4E70E60
:100EC000F81E491F561FC11D770F881F991F661FE7
:100ED0000694A1F70590079428F4F80E491F561FB1
:100EE000C71FD11D880F991F661F771F0694A1F792
:100EF0000590079420F4490F561FC71FD81F990F5C
:100F0000661F771F881F0694A9F7849110951770A4
:100F100041F0D695C79557954795F794E7941A955C
:100F2000C1F7E2ECF0E06894159015913591659168
:100F3000959105907FE27395E118F10A430B560BEA
:100F4000C90BD009C0F7E10CF11E431F561FC91F82
:100F5000D01D7EF4703311F48A95E6CFE8940150E9
:100F600030F0080F0AF40027021708F4202F239509
:100F7000022F7A3328F079E37D932A95E9F710C0A0
:100F80007D932A9589F606949795679537951795D9
:100F90001794E118F10A430B560BC90BD00998F0CE
:100FA00023957E9173957A3308F070E37C93201338
:100FB000B8F77E9170617D9330F0839571E37D93F6
:100FC00070E32A95E1F71124EF90FF900F911F91A4
:100FD000CF91DF91992787FD90950895DC01FC0161
:100FE000672F71917723E1F7329704C07C916D935D
:100FF00070836291AE17BF07C8F308952F923F9296
:101000004F925F926F927F928F929F92AF92BF9218
:10101000CF92DF92EF92FF920F931F93CF93DF93C4
:10102000CDB7DEB7CA1BDB0B0FB6F894DEBF0FBE21
:10103000CDBF09942A88398848885F846E847D846E
:101040008C849B84AA84B984C884DF80EE80FD8070
:101050000C811B81AA81B981CE0FD11D0FB6F894E6
:0E106000DEBF0FBECDBFED010895F894FFCFA7
:0C106E0048656C6C6F2021210020000000
:00000001FF
