:020000020000FC
:040000000C94BA01A1
:040028000C949202A0
:040034000C94920294
:100068001895449A459A88E48093B80080E0809374
:10007800B90085E48093BC00089580E08093BC00BB
:1000880084EA8093BC008091BC0087FFFCCF089570
:1000980084E98093BC0008958093BB0084E8809332
:1000A800BC008091BC0087FFFCCF089584E8809352
:1000B800BC008091BC0087FFFCCF8091BB000895F5
:1000C80084EC8093BC008091BC0087FFFCCF8091BA
:1000D800BB000895AF939F938F930E9441008F9127
:1000E8008894881F0E9450008F910E9450008F9121
:1000F8000E9450000E944C0008958F939F938F9305
:100108000E9441008F918894881F0E9450008F910F
:100118000E9450000E9441008F910894881F0E94FD
:1001280050000E945A008F930E944C008F910895AE
:10013800000082E08A95F1F7089593E000009A950F
:10014800E9F78A95D1F7089580EB90EE0196F1F7DB
:1001580008950AE011E000930A0210930B0200933D
:100168000C0210930D0200E000930E0208950FEFA9
:1001780010910E020117A1F0139510930E02C09171
:100188000A02D0910B0229930AE012E01D1721F40C
:100198000C1711F4CAE0D1E0C0930A02D0930B0205
:1001A800089500910E020023A1F00A9500930E0213
:1001B800C0910C02D0910D0229910AE012E01D179E
:1001C80021F40C1711F4CAE0D1E0C0930C02D093CB
:1001D8000D02089535E02DE000E010EA40E050E01F
:1001E8008017910720F00894411D801B910B88947B
:1001F800179507958894441F551F2A9589F7889461
:100208005795479580638F93842F952F3A9519F7C3
:100218000F910D930F910D930F910D930F910D93D6
:100228000F910D9300E00D930895A8E28EE390E8F6
:1002380051DF82E382DF88DF87DF86DFA8E28EE393
:1002480090E848DF82E379DF84E677DFA8E28EE38F
:1002580090E840DF82E371DFA8E28EE390E83ADFBE
:1002680082E36BDFA8E38EE390E834DF82E365DFA7
:10027800A8E08EE390E82EDF82E35FDFA1E08EE363
:1002880090E828DF82E359DF5FDFA6E08EE390E89D
:1002980021DF82E352DFACE08EE390E81BDF82E3EC
:1002A8004CDF01D0089590E0A0E082E613DF98E0EB
:1002B800AFEF82E60FDF91E0A0E282E60BDF94E089
:1002C800A0E082E607DF93E0A0E082E603DF92E0A9
:1002D800AFEF82E6FFDE0895A1E08EE390E8FADE54
:1002E80082E32BDF31DF0895A0E89F70817009F069
:1002F800A064A92BAA2F8EE390E8ECDE82E31DDF31
:1003080008958894EE1FFF1F8591882309F40895A6
:10031800A82F8EE390E4DEDE82E30FDFF5CF819134
:10032800882309F40895A82F8EE390E4D3DE82E3AE
:1003380004DFF5CF8F9382958F7080638A3312F034
:1003480097E0890FA82F8EE390E4C4DE82E3F5DE00
:100358008F918F7080638A3312F097E0890FA82FEE
:100368008EE390E4B7DE82E3E8DE089508E00EBF8E
:100378000FEF0DBF112475DE58DF04E00AB900E065
:100388000BB903E004B902E005B9E8E9F2E0B9DF26
:1003980081E090E0A9DFEEE9F2E0B3DF4B9BFECF0E
:1003A8004B99FECF99DFAEE28EE390E493DE82E3D1
:1003B800C4DE07E400BF02E000937F0001E200937F
:1003C8006F0011247724882499247894109285004A
:1003D800109284000FEF06BB03E8009381005A9A3D
:1003E80002E005B97720F1F3F8945A9800E00093F9
:1003F800810072DF80E090E077DF882D992DA0E002
:10040800B1E0E8DEE0E0F1E08ADF81E090E06CDF77
:10041800E5EAF2E076DF5A98082D192DAA2427E09C
:10042800029F802C912C129F900CA11C8894A79459
:10043800979487948894A794979487948894882D00
:10044800992DA0E0B1E0C6DEE0E0F1E068DFAEE6BD
:100458008EE390E43FDE82E370DEA6E48EE390E470
:1004680039DE82E36ADE70DE6FDE6EDE6DDE6CDE44
:100478006BDE6ADE69DE68DE67DE66DE65DE64DE48
:1004880063DE62DE61DE60DE5FDE5EDE5DDE5CDE78
:100498005BDE5ADE59DE58DE57DE56DE55DE54DEA8
:1004A80053DE52DE51DE50DE4FDE4EDE4DDE4CDED8
:1004B8004BDE4ADE49DE48DE47DE46DE45DE44DE08
:1004C80043DE42DE41DE40DE3FDE3EDE3DDE3CDE38
:1004D8003BDE3ADE39DE38DE37DE36DE35DE34DE68
:1004E80033DE32DE31DE30DE2FDE2EDE2DDE2CDE98
:1004F8002BDE2ADE29DE28DE27DE26DE25DE24DEC8
:1005080023DE22DE21DE20DE1FDE1EDE1DDE1CDEF7
:100518001BDE1ADE19DE18DE17DE53CF8090860048
:100528009090870073941895436170784D65746551
:1005380072210000507265737320627574746F6E57
:0C05480000004D656469646F3D200000F8
:00000001FF
