:020000020000FC
:040000000C94340028
:040040000C944F00CD
:1000680001E0502E08E00EBF0FEF0DBF00E7009330
:10007800880002E0009389000CE00093810000E012
:100088000093800002E000936F00529A10E020E095
:1000980030E07894FFCF73940FE007210A50E1F520
:1000A80000EF702200E1700E00EF0721005AA1F561
:1000B8000FE07022319511F05A9801C05A9A839432
:1000C8000FE008210A5041F500EF802200E1800E80
:1000D80000EF0821005601F50FE0802293940FE00D
:1000E80009210A50C9F400EF902200E1900E00EFB8
:1000F8000921005689F40FE09022A3940FE00A2109
:100108000A5051F400EFA02200E1A00E00EF0A21EE
:0A011800005A11F40FE0A022189520
:00000001FF
