:020000020000FC
:040000000C942C0030
:100054000C94DF008FEF8AB983E084B963D088E61B
:100064008CD082E395D085E688D082E391D08CE66B
:1000740084D082E38DD08CE680D082E389D08FE671
:100084007CD082E385D084D000E600937C0001E03C
:1000940000937E000FE900937A0020E030E00FED3A
:1000A40000937A0078942317F1F3232F88E85FD024
:1000B40082E36ED0022F009502951FE001230063B6
:1000C4001AE3011710F017E0010F802F56D082E3D6
:1000D4005FD0022F00951FE0012300631AE301178C
:1000E40010F017E0010F802F48D082E351D080EC4C
:1000F4003ED082E34DD0022F009502951FE00123EC
:1001040039F08FEF3AD082E343D01A950A95F8CFAD
:10011400112329F280E231D082E33AD01A95F9CF43
:100124000395FECF80E323D082E332D038D037D09A
:1001340036D080E31CD082E32BD080E318D082E356
:1001440027D088E314D082E323D088E010D082E360
:100154001FD081E00CD082E31BD021D086E007D0F1
:1001640082E316D08FE003D082E312D008958BB9D6
:100174002998289A08D0289808958BB9299A289AFA
:1001840002D028980895000082E08A95F1F7089536
:1001940093E000009A95E9F78A95D1F7089580EBEA
:1001A40090EE0196F1F7089548656C6C6F2120007C
:1001B40055657267732E2E2E0000309179000FED75
:0601C40000937A0018957B
:00000001FF
